{
    "_format": "hh-sol-artifact-1",
    "contractName": "Transaction",
    "sourceName": "contracts/Transactions.sol",
    "abi": [
        {
            "anonymous": false,
            "inputs": [
                {
                    "indexed": false,
                    "internalType": "address",
                    "name": "from",
                    "type": "address"
                },
                {
                    "indexed": false,
                    "internalType": "address",
                    "name": "to",
                    "type": "address"
                },
                {
                    "indexed": false,
                    "internalType": "uint256",
                    "name": "amount",
                    "type": "uint256"
                },
                {
                    "indexed": false,
                    "internalType": "string",
                    "name": "message",
                    "type": "string"
                },
                {
                    "indexed": false,
                    "internalType": "uint256",
                    "name": "timestamp",
                    "type": "uint256"
                },
                {
                    "indexed": false,
                    "internalType": "string",
                    "name": "keyword",
                    "type": "string"
                }
            ],
            "name": "Transfer",
            "type": "event"
        },
        {
            "inputs": [
                {
                    "internalType": "address payable",
                    "name": "to",
                    "type": "address"
                },
                {
                    "internalType": "uint256",
                    "name": "amount",
                    "type": "uint256"
                },
                {
                    "internalType": "string",
                    "name": "message",
                    "type": "string"
                },
                {
                    "internalType": "string",
                    "name": "keyword",
                    "type": "string"
                }
            ],
            "name": "addToBloackchain",
            "outputs": [],
            "stateMutability": "nonpayable",
            "type": "function"
        },
        {
            "inputs": [],
            "name": "getAllTransactions",
            "outputs": [
                {
                    "components": [
                        {
                            "internalType": "address",
                            "name": "from",
                            "type": "address"
                        },
                        {
                            "internalType": "address",
                            "name": "to",
                            "type": "address"
                        },
                        {
                            "internalType": "uint256",
                            "name": "amount",
                            "type": "uint256"
                        },
                        {
                            "internalType": "string",
                            "name": "message",
                            "type": "string"
                        },
                        {
                            "internalType": "uint256",
                            "name": "timestamp",
                            "type": "uint256"
                        },
                        {
                            "internalType": "string",
                            "name": "keyword",
                            "type": "string"
                        }
                    ],
                    "internalType": "struct Transaction.TransferStruct[]",
                    "name": "",
                    "type": "tuple[]"
                }
            ],
            "stateMutability": "view",
            "type": "function"
        },
        {
            "inputs": [],
            "name": "getTransactionCounter",
            "outputs": [
                {
                    "internalType": "uint256",
                    "name": "",
                    "type": "uint256"
                }
            ],
            "stateMutability": "view",
            "type": "function"
        }
    ],
    "bytecode": "0x608060405234801561001057600080fd5b50610e0c806100206000396000f3fe608060405234801561001057600080fd5b50600436106100415760003560e01c80630c0fc1561461004657806327506f53146100625780632dd1b86b14610080575b600080fd5b610060600480360381019061005b919061068c565b61009e565b005b61006a610252565b604051610077919061092c565b60405180910390f35b610088610495565b604051610095919061095d565b60405180910390f35b7f416cfa4330a4565f45c2fd2dd4826a83a37443aba2ce6f79477c7355afac35fa3385858542866040516100d796959493929190610a30565b60405180910390a160016040518060c001604052803373ffffffffffffffffffffffffffffffffffffffff1681526020018673ffffffffffffffffffffffffffffffffffffffff16815260200185815260200184815260200142815260200183815250908060018154018082558091505060019003906000526020600020906006020160009091909190915060008201518160000160006101000a81548173ffffffffffffffffffffffffffffffffffffffff021916908373ffffffffffffffffffffffffffffffffffffffff16021790555060208201518160010160006101000a81548173ffffffffffffffffffffffffffffffffffffffff021916908373ffffffffffffffffffffffffffffffffffffffff1602179055506040820151816002015560608201518160030190816102109190610ca1565b506080820151816004015560a08201518160050190816102309190610ca1565b50505060016000808282546102459190610da2565b9250508190555050505050565b60606001805480602002602001604051908101604052809291908181526020016000905b8282101561048c57838290600052602060002090600602016040518060c00160405290816000820160009054906101000a900473ffffffffffffffffffffffffffffffffffffffff1673ffffffffffffffffffffffffffffffffffffffff1673ffffffffffffffffffffffffffffffffffffffff1681526020016001820160009054906101000a900473ffffffffffffffffffffffffffffffffffffffff1673ffffffffffffffffffffffffffffffffffffffff1673ffffffffffffffffffffffffffffffffffffffff1681526020016002820154815260200160038201805461035f90610ace565b80601f016020809104026020016040519081016040528092919081815260200182805461038b90610ace565b80156103d85780601f106103ad576101008083540402835291602001916103d8565b820191906000526020600020905b8154815290600101906020018083116103bb57829003601f168201915b50505050508152602001600482015481526020016005820180546103fb90610ace565b80601f016020809104026020016040519081016040528092919081815260200182805461042790610ace565b80156104745780601f1061044957610100808354040283529160200191610474565b820191906000526020600020905b81548152906001019060200180831161045757829003601f168201915b50505050508152505081526020019060010190610276565b50505050905090565b60008054905090565b6000604051905090565b600080fd5b600080fd5b600073ffffffffffffffffffffffffffffffffffffffff82169050919050565b60006104dd826104b2565b9050919050565b6104ed816104d2565b81146104f857600080fd5b50565b60008135905061050a816104e4565b92915050565b6000819050919050565b61052381610510565b811461052e57600080fd5b50565b6000813590506105408161051a565b92915050565b600080fd5b600080fd5b6000601f19601f8301169050919050565b7f4e487b7100000000000000000000000000000000000000000000000000000000600052604160045260246000fd5b61059982610550565b810181811067ffffffffffffffff821117156105b8576105b7610561565b5b80604052505050565b60006105cb61049e565b90506105d78282610590565b919050565b600067ffffffffffffffff8211156105f7576105f6610561565b5b61060082610550565b9050602081019050919050565b82818337600083830152505050565b600061062f61062a846105dc565b6105c1565b90508281526020810184848401111561064b5761064a61054b565b5b61065684828561060d565b509392505050565b600082601f83011261067357610672610546565b5b813561068384826020860161061c565b91505092915050565b600080600080608085870312156106a6576106a56104a8565b5b60006106b4878288016104fb565b94505060206106c587828801610531565b935050604085013567ffffffffffffffff8111156106e6576106e56104ad565b5b6106f28782880161065e565b925050606085013567ffffffffffffffff811115610713576107126104ad565b5b61071f8782880161065e565b91505092959194509250565b600081519050919050565b600082825260208201905092915050565b6000819050602082019050919050565b6000610762826104b2565b9050919050565b61077281610757565b82525050565b61078181610510565b82525050565b600081519050919050565b600082825260208201905092915050565b60005b838110156107c15780820151818401526020810190506107a6565b60008484015250505050565b60006107d882610787565b6107e28185610792565b93506107f28185602086016107a3565b6107fb81610550565b840191505092915050565b600060c08301600083015161081e6000860182610769565b5060208301516108316020860182610769565b5060408301516108446040860182610778565b506060830151848203606086015261085c82826107cd565b91505060808301516108716080860182610778565b5060a083015184820360a086015261088982826107cd565b9150508091505092915050565b60006108a28383610806565b905092915050565b6000602082019050919050565b60006108c28261072b565b6108cc8185610736565b9350836020820285016108de85610747565b8060005b8581101561091a57848403895281516108fb8582610896565b9450610906836108aa565b925060208a019950506001810190506108e2565b50829750879550505050505092915050565b6000602082019050818103600083015261094681846108b7565b905092915050565b61095781610510565b82525050565b6000602082019050610972600083018461094e565b92915050565b61098181610757565b82525050565b6000819050919050565b60006109ac6109a76109a2846104b2565b610987565b6104b2565b9050919050565b60006109be82610991565b9050919050565b60006109d0826109b3565b9050919050565b6109e0816109c5565b82525050565b600082825260208201905092915050565b6000610a0282610787565b610a0c81856109e6565b9350610a1c8185602086016107a3565b610a2581610550565b840191505092915050565b600060c082019050610a456000830189610978565b610a5260208301886109d7565b610a5f604083018761094e565b8181036060830152610a7181866109f7565b9050610a80608083018561094e565b81810360a0830152610a9281846109f7565b9050979650505050505050565b7f4e487b7100000000000000000000000000000000000000000000000000000000600052602260045260246000fd5b60006002820490506001821680610ae657607f821691505b602082108103610af957610af8610a9f565b5b50919050565b60008190508160005260206000209050919050565b60006020601f8301049050919050565b600082821b905092915050565b600060088302610b617fffffffffffffffffffffffffffffffffffffffffffffffffffffffffffffffff82610b24565b610b6b8683610b24565b95508019841693508086168417925050509392505050565b6000610b9e610b99610b9484610510565b610987565b610510565b9050919050565b6000819050919050565b610bb883610b83565b610bcc610bc482610ba5565b848454610b31565b825550505050565b600090565b610be1610bd4565b610bec818484610baf565b505050565b5b81811015610c1057610c05600082610bd9565b600181019050610bf2565b5050565b601f821115610c5557610c2681610aff565b610c2f84610b14565b81016020851015610c3e578190505b610c52610c4a85610b14565b830182610bf1565b50505b505050565b600082821c905092915050565b6000610c7860001984600802610c5a565b1980831691505092915050565b6000610c918383610c67565b9150826002028217905092915050565b610caa82610787565b67ffffffffffffffff811115610cc357610cc2610561565b5b610ccd8254610ace565b610cd8828285610c14565b600060209050601f831160018114610d0b5760008415610cf9578287015190505b610d038582610c85565b865550610d6b565b601f198416610d1986610aff565b60005b82811015610d4157848901518255600182019150602085019450602081019050610d1c565b86831015610d5e5784890151610d5a601f891682610c67565b8355505b6001600288020188555050505b505050505050565b7f4e487b7100000000000000000000000000000000000000000000000000000000600052601160045260246000fd5b6000610dad82610510565b9150610db883610510565b9250828201905080821115610dd057610dcf610d73565b5b9291505056fea26469706673582212203b828b0fb715513e025920ce2bc7a9fe5ffafd467e6cb1b111fe0de20b5c1dd464736f6c63430008110033",
    "linkReferences": {},
    "deployedLinkReferences": {}
}